{
  "contractName": "ElectionList",
  "abi": [
    {
      "inputs": [],
      "payable": false,
      "stateMutability": "nonpayable",
      "type": "constructor"
    },
    {
      "constant": true,
      "inputs": [
        {
          "internalType": "uint256",
          "name": "",
          "type": "uint256"
        }
      ],
      "name": "candidates",
      "outputs": [
        {
          "internalType": "uint256",
          "name": "election_id",
          "type": "uint256"
        },
        {
          "internalType": "string",
          "name": "name",
          "type": "string"
        },
        {
          "internalType": "uint256",
          "name": "num_of_votes",
          "type": "uint256"
        }
      ],
      "payable": false,
      "stateMutability": "view",
      "type": "function"
    },
    {
      "constant": true,
      "inputs": [],
      "name": "candidatesCount",
      "outputs": [
        {
          "internalType": "uint256",
          "name": "",
          "type": "uint256"
        }
      ],
      "payable": false,
      "stateMutability": "view",
      "type": "function"
    },
    {
      "constant": true,
      "inputs": [],
      "name": "electionCount",
      "outputs": [
        {
          "internalType": "uint256",
          "name": "",
          "type": "uint256"
        }
      ],
      "payable": false,
      "stateMutability": "view",
      "type": "function"
    },
    {
      "constant": true,
      "inputs": [
        {
          "internalType": "uint256",
          "name": "",
          "type": "uint256"
        }
      ],
      "name": "elections",
      "outputs": [
        {
          "internalType": "uint256",
          "name": "id",
          "type": "uint256"
        },
        {
          "internalType": "string",
          "name": "election_title",
          "type": "string"
        },
        {
          "internalType": "bool",
          "name": "completed",
          "type": "bool"
        }
      ],
      "payable": false,
      "stateMutability": "view",
      "type": "function"
    },
    {
      "constant": false,
      "inputs": [
        {
          "internalType": "string",
          "name": "_title",
          "type": "string"
        },
        {
          "internalType": "string[]",
          "name": "_cands",
          "type": "string[]"
        }
      ],
      "name": "createElection",
      "outputs": [],
      "payable": false,
      "stateMutability": "nonpayable",
      "type": "function"
    }
  ],
  "bytecode": "0x60806040526000805560006001553480156200001a57600080fd5b50604051806060016040528060405180604001604052806004815260200163185b585b60e21b81525081526020016040518060400160405280600481526020016330b93ab760e11b815250815260200160405180604001604052806005815260200164185ada1a5b60da1b81525081525060029060036200009d929190620002c9565b50620001bf6040518060400160405280601681526020017f435553415420434f4c4c45474520454c454354494f4e000000000000000000008152506002805480602002602001604051908101604052809291908181526020016000905b82821015620001ab5760008481526020908190208301805460408051601f6002600019610100600187161502019094169390930492830185900485028101850190915281815292830182828015620001965780601f106200016a5761010080835404028352916020019162000196565b820191906000526020600020905b8154815290600101906020018083116200017857829003601f168201915b505050505081526020019060010190620000fa565b50506001600160e01b03620001c516915050565b62000441565b60008054600190810180835560408051606081018252828152602080820188815282840187905293865260038152919094208451815591518051929362000215939085019291909101906200032d565b50604091909101516002909101805460ff191691151591909117905560005b8151811015620002c457600180548101905560408051606081019091526000548152825160208201908490849081106200026a57fe5b60209081029190910181015182526000918101829052600180548352600482526040909220835181558382015180519193620002ad93908501929101906200032d565b506040919091015160029091015560010162000234565b505050565b8280548282559060005260206000209081019282156200031b579160200282015b828111156200031b57825180516200030a9184916020909101906200032d565b5091602001919060010190620002ea565b5062000329929150620003ae565b5090565b828054600181600116156101000203166002900490600052602060002090601f016020900481019282601f106200037057805160ff1916838001178555620003a0565b82800160010185558215620003a0579182015b82811115620003a057825182559160200191906001019062000383565b5062000329929150620003d9565b620003d691905b8082111562000329576000620003cc8282620003f6565b50600101620003b5565b90565b620003d691905b80821115620003295760008155600101620003e0565b50805460018160011615610100020316600290046000825580601f106200041e57506200043e565b601f0160209004906000526020600020908101906200043e9190620003d9565b50565b61071580620004516000396000f3fe608060405234801561001057600080fd5b50600436106100575760003560e01c80632d35a8a21461005c5780633477ee2e1461007a578063349813b21461009c5780635e6fef01146100b1578063997d2830146100d3575b600080fd5b6100646100db565b6040516100719190610587565b60405180910390f35b61008d610088366004610511565b6100e1565b604051610071939291906105c4565b6100af6100aa3660046104a8565b61018e565b005b6100c46100bf366004610511565b61028b565b60405161007193929190610595565b61006461033b565b60015481565b6004602090815260009182526040918290208054600180830180548651600293821615610100026000190190911692909204601f81018690048602830186019096528582529194929390929083018282801561017e5780601f106101535761010080835404028352916020019161017e565b820191906000526020600020905b81548152906001019060200180831161016157829003601f168201915b5050505050908060020154905083565b6000805460019081018083556040805160608101825282815260208082018881528284018790529386526003815291909420845181559151805192936101dc93908501929190910190610341565b50604091909101516002909101805460ff191691151591909117905560005b8151811015610286576001805481019055604080516060810190915260005481528251602082019084908490811061022f57fe5b602090810291909101810151825260009181018290526001805483526004825260409092208351815583820151805191936102709390850192910190610341565b50604091909101516002909101556001016101fb565b505050565b6003602090815260009182526040918290208054600180830180548651600293821615610100026000190190911692909204601f8101869004860283018601909652858252919492939092908301828280156103285780601f106102fd57610100808354040283529160200191610328565b820191906000526020600020905b81548152906001019060200180831161030b57829003601f168201915b5050506002909301549192505060ff1683565b60005481565b828054600181600116156101000203166002900490600052602060002090601f016020900481019282601f1061038257805160ff19168380011785556103af565b828001600101855582156103af579182015b828111156103af578251825591602001919060010190610394565b506103bb9291506103bf565b5090565b6103d991905b808211156103bb57600081556001016103c5565b90565b600082601f8301126103ed57600080fd5b81356104006103fb8261061a565b6105f3565b81815260209384019390925082018360005b8381101561043e57813586016104288882610448565b8452506020928301929190910190600101610412565b5050505092915050565b600082601f83011261045957600080fd5b81356104676103fb8261063b565b9150808252602083016020830185838301111561048357600080fd5b61048e838284610675565b50505092915050565b80356104a2816106bb565b92915050565b600080604083850312156104bb57600080fd5b823567ffffffffffffffff8111156104d257600080fd5b6104de85828601610448565b925050602083013567ffffffffffffffff8111156104fb57600080fd5b610507858286016103dc565b9150509250929050565b60006020828403121561052357600080fd5b600061052f8484610497565b949350505050565b61054081610670565b82525050565b600061055182610663565b61055b8185610667565b935061056b818560208601610681565b610574816106b1565b9093019392505050565b610540816103d9565b602081016104a2828461057e565b606081016105a3828661057e565b81810360208301526105b58185610546565b905061052f6040830184610537565b606081016105d2828661057e565b81810360208301526105e48185610546565b905061052f604083018461057e565b60405181810167ffffffffffffffff8111828210171561061257600080fd5b604052919050565b600067ffffffffffffffff82111561063157600080fd5b5060209081020190565b600067ffffffffffffffff82111561065257600080fd5b506020601f91909101601f19160190565b5190565b90815260200190565b151590565b82818337506000910152565b60005b8381101561069c578181015183820152602001610684565b838111156106ab576000848401525b50505050565b601f01601f191690565b6106c4816103d9565b81146106cf57600080fd5b5056fea365627a7a7231582071c72bc3ae7ed6c5f5cc905870701422d6597fe8c00e5cdb42fe7096202a16b66c6578706572696d656e74616cf564736f6c63430005100040",
  "source": "pragma solidity >=0.4.22 <0.9.0;\r\npragma experimental ABIEncoderV2;\r\n\r\n\r\ncontract ElectionList {\r\n    uint public electionCount = 0;\r\n    uint public candidatesCount = 0;\r\n    string[] candis;\r\n\r\n    struct ElectionDetail {\r\n        uint id;\r\n        string election_title;\r\n        bool completed;\r\n    }\r\n\r\n    struct CandidatesDetail {\r\n        uint election_id;\r\n        string name;\r\n        uint num_of_votes;\r\n    }\r\n\r\n    mapping(uint => ElectionDetail) public elections;\r\n    mapping(uint => CandidatesDetail) public candidates;\r\n\r\n\r\n    constructor() public{\r\n\r\n     candis = [\"amal\",\"arun\",\"akhil\"];\r\n     createElection(\"CUSAT COLLEGE ELECTION\", candis);   \r\n\r\n    }\r\n\r\n    function createElection(string memory _title, string[] memory _cands) public{\r\n        electionCount++;\r\n        elections[electionCount] = ElectionDetail(electionCount, _title, false);\r\n        for (uint i=0; i<_cands.length; i++) {\r\n            candidatesCount++;\r\n            candidates[candidatesCount] = CandidatesDetail(electionCount,_cands[i],0);\r\n        }\r\n\r\n        // emit TaskCreated(taskCount, _content, false);\r\n     }\r\n\r\n    // function toggleCompleted(uint _id) public {\r\n    //     Task memory _task = tasks[_id];\r\n    //     _task.completed = !_task.completed;\r\n    //     tasks[_id] = _task;\r\n    //     emit TaskCompleted(_id, _task.completed);\r\n    // }\r\n\r\n\r\n}",
  "sourcePath": "D:\\DEVELOPER\\DAPPS\\ONLINE VOTING SYSTEM\\contracts\\ElectionList.sol",
  "compiler": {
    "name": "solc",
    "version": "0.5.16+commit.9c3226ce.Emscripten.clang"
  },
  "schemaVersion": "3.4.7",
  "updatedAt": "2022-05-02T18:22:09.446Z",
  "networkType": "ethereum",
  "devdoc": {
    "methods": {}
  },
  "userdoc": {
    "methods": {}
  }
}