{
  "contractName": "ElectionList",
  "abi": [
    {
      "inputs": [],
      "payable": false,
      "stateMutability": "nonpayable",
      "type": "constructor"
    },
    {
      "anonymous": false,
      "inputs": [
        {
          "indexed": false,
          "internalType": "uint256",
          "name": "id",
          "type": "uint256"
        },
        {
          "indexed": false,
          "internalType": "uint256",
          "name": "vote_count",
          "type": "uint256"
        }
      ],
      "name": "VoteCompleted",
      "type": "event"
    },
    {
      "anonymous": false,
      "inputs": [
        {
          "indexed": false,
          "internalType": "uint256",
          "name": "id",
          "type": "uint256"
        },
        {
          "indexed": false,
          "internalType": "string",
          "name": "cand_name",
          "type": "string"
        },
        {
          "indexed": false,
          "internalType": "uint256",
          "name": "num_votes",
          "type": "uint256"
        }
      ],
      "name": "addCandidate",
      "type": "event"
    },
    {
      "anonymous": false,
      "inputs": [
        {
          "indexed": false,
          "internalType": "uint256",
          "name": "id",
          "type": "uint256"
        },
        {
          "indexed": false,
          "internalType": "string",
          "name": "election_title",
          "type": "string"
        },
        {
          "indexed": false,
          "internalType": "bool",
          "name": "completed",
          "type": "bool"
        }
      ],
      "name": "electionSetup",
      "type": "event"
    },
    {
      "constant": true,
      "inputs": [
        {
          "internalType": "uint256",
          "name": "",
          "type": "uint256"
        }
      ],
      "name": "candidates",
      "outputs": [
        {
          "internalType": "uint256",
          "name": "id",
          "type": "uint256"
        },
        {
          "internalType": "uint256",
          "name": "election_id",
          "type": "uint256"
        },
        {
          "internalType": "string",
          "name": "name",
          "type": "string"
        },
        {
          "internalType": "uint256",
          "name": "num_of_votes",
          "type": "uint256"
        }
      ],
      "payable": false,
      "stateMutability": "view",
      "type": "function"
    },
    {
      "constant": true,
      "inputs": [],
      "name": "candidatesCount",
      "outputs": [
        {
          "internalType": "uint256",
          "name": "",
          "type": "uint256"
        }
      ],
      "payable": false,
      "stateMutability": "view",
      "type": "function"
    },
    {
      "constant": true,
      "inputs": [],
      "name": "electionCount",
      "outputs": [
        {
          "internalType": "uint256",
          "name": "",
          "type": "uint256"
        }
      ],
      "payable": false,
      "stateMutability": "view",
      "type": "function"
    },
    {
      "constant": true,
      "inputs": [
        {
          "internalType": "uint256",
          "name": "",
          "type": "uint256"
        }
      ],
      "name": "elections",
      "outputs": [
        {
          "internalType": "uint256",
          "name": "id",
          "type": "uint256"
        },
        {
          "internalType": "string",
          "name": "election_title",
          "type": "string"
        },
        {
          "internalType": "bool",
          "name": "completed",
          "type": "bool"
        }
      ],
      "payable": false,
      "stateMutability": "view",
      "type": "function"
    },
    {
      "constant": false,
      "inputs": [
        {
          "internalType": "string",
          "name": "_title",
          "type": "string"
        }
      ],
      "name": "createElectionTitle",
      "outputs": [],
      "payable": false,
      "stateMutability": "nonpayable",
      "type": "function"
    },
    {
      "constant": false,
      "inputs": [
        {
          "internalType": "uint256",
          "name": "_electionid",
          "type": "uint256"
        },
        {
          "internalType": "string",
          "name": "_cand_name",
          "type": "string"
        }
      ],
      "name": "addCandidates",
      "outputs": [],
      "payable": false,
      "stateMutability": "nonpayable",
      "type": "function"
    },
    {
      "constant": false,
      "inputs": [
        {
          "internalType": "uint256",
          "name": "_candidateid",
          "type": "uint256"
        }
      ],
      "name": "voteCandidate",
      "outputs": [],
      "payable": false,
      "stateMutability": "nonpayable",
      "type": "function"
    }
  ],
  "bytecode": "0x608060405260008055600060015534801561001957600080fd5b50610977806100296000396000f3fe608060405234801561001057600080fd5b506004361061007d5760003560e01c80635e6fef011161005b5780635e6fef01146100d85780638c08a4dc146100fa578063997d28301461010d578063c5b15a3e146101155761007d565b80632d35a8a2146100825780633477ee2e146100a0578063418d7c94146100c3575b600080fd5b61008a610128565b6040516100979190610798565b60405180910390f35b6100b36100ae3660046106cf565b61012e565b6040516100979493929190610826565b6100d66100d1366004610692565b6101dd565b005b6100eb6100e63660046106cf565b610287565b604051610097939291906107a6565b6100d66101083660046106cf565b610337565b61008a6104b7565b6100d66101233660046106ed565b6104bd565b60015481565b60046020908152600091825260409182902080546001808301546002808501805488519481161561010002600019011691909104601f8101879004870284018701909752868352929590949192918301828280156101cd5780601f106101a2576101008083540402835291602001916101cd565b820191906000526020600020905b8154815290600101906020018083116101b057829003601f168201915b5050505050908060030154905084565b60008054600190810180835560408051606081018252828152602080820187815282840187905293865260038152919094208451815591518051929361022b9390850192919091019061056a565b50604091820151600291909101805460ff191691151591909117905560005490517f126eb44ef21c9532ed57d8ab5a35a384aeb49268b3ab6ba72432316091604d259161027c9184906001906107a6565b60405180910390a150565b6003602090815260009182526040918290208054600180830180548651600293821615610100026000190190911692909204601f8101869004860283018601909652858252919492939092908301828280156103245780601f106102f957610100808354040283529160200191610324565b820191906000526020600020905b81548152906001019060200180831161030757829003601f168201915b5050506002909301549192505060ff1683565b61033f6105e8565b600460008381526020019081526020016000206040518060800160405290816000820154815260200160018201548152602001600282018054600181600116156101000203166002900480601f01602080910402602001604051908101604052809291908181526020018280546001816001161561010002031660029004801561040a5780601f106103df5761010080835404028352916020019161040a565b820191906000526020600020905b8154815290600101906020018083116103ed57829003601f168201915b505050918352505060039190910154602091820152606082018051600190810191829052600086815260048452604090819020855181558585015192810192909255840151805194955091938593919261046b92600285019291019061056a565b50606082015181600301559050507f81f1fbebff0f3470fab33fc28582fc79df4903d15695812963a792412a0ce15c83826040516104aa929190610804565b60405180910390a1505050565b60005481565b60018054810180825560408051608081018252828152602080820187815282840187815260006060850181905295865260048352939094208251815593519484019490945590518051919361051a9260028501929091019061056a565b50606082015181600301559050507f128ebca12e186c4bc2ef1f3c119519e435701bd236b8d1ea02eff74ff6309d1060015482600060405161055e939291906107d5565b60405180910390a15050565b828054600181600116156101000203166002900490600052602060002090601f016020900481019282601f106105ab57805160ff19168380011785556105d8565b828001600101855582156105d8579182015b828111156105d85782518255916020019190600101906105bd565b506105e4929150610610565b5090565b6040518060800160405280600081526020016000815260200160608152602001600081525090565b61062a91905b808211156105e45760008155600101610616565b90565b600082601f83011261063e57600080fd5b813561065161064c82610892565b61086b565b9150808252602083016020830185838301111561066d57600080fd5b6106788382846108d7565b50505092915050565b803561068c8161091d565b92915050565b6000602082840312156106a457600080fd5b813567ffffffffffffffff8111156106bb57600080fd5b6106c78482850161062d565b949350505050565b6000602082840312156106e157600080fd5b60006106c78484610681565b6000806040838503121561070057600080fd5b600061070c8585610681565b925050602083013567ffffffffffffffff81111561072957600080fd5b6107358582860161062d565b9150509250929050565b610748816108c7565b82525050565b610748816108cc565b6000610762826108ba565b61076c81856108be565b935061077c8185602086016108e3565b61078581610913565b9093019392505050565b6107488161062a565b6020810161068c828461078f565b606081016107b4828661078f565b81810360208301526107c68185610757565b90506106c7604083018461073f565b606081016107e3828661078f565b81810360208301526107f58185610757565b90506106c7604083018461074e565b60408101610812828561078f565b61081f602083018461078f565b9392505050565b60808101610834828761078f565b610841602083018661078f565b81810360408301526108538185610757565b9050610862606083018461078f565b95945050505050565b60405181810167ffffffffffffffff8111828210171561088a57600080fd5b604052919050565b600067ffffffffffffffff8211156108a957600080fd5b506020601f91909101601f19160190565b5190565b90815260200190565b151590565b600061068c8261062a565b82818337506000910152565b60005b838110156108fe5781810151838201526020016108e6565b8381111561090d576000848401525b50505050565b601f01601f191690565b6109268161062a565b811461093157600080fd5b5056fea365627a7a723158203af099204669d9b002eeae24d21fa1c34949ddeef64532772250307ae0000f596c6578706572696d656e74616cf564736f6c63430005100040",
  "source": "pragma solidity >=0.4.22 <0.9.0;\r\npragma experimental ABIEncoderV2;\r\n\r\n\r\ncontract ElectionList {\r\n    uint public electionCount = 0;\r\n    uint public candidatesCount = 0;\r\n    string[] candis;\r\n\r\n    struct ElectionDetail {\r\n        uint id;\r\n        string election_title;\r\n        bool completed;\r\n    }\r\n\r\n    struct CandidatesDetail {\r\n        uint id;\r\n        uint election_id;\r\n        string name;\r\n        uint num_of_votes;\r\n    }\r\n\r\n    event electionSetup(\r\n        uint id,\r\n        string election_title,\r\n        bool completed\r\n    );\r\n\r\n    event addCandidate(\r\n        uint id,\r\n        string cand_name,\r\n        uint num_votes\r\n    );\r\n    event VoteCompleted(\r\n        uint id,\r\n        uint vote_count\r\n    );\r\n\r\n\r\n    mapping(uint => ElectionDetail) public elections;\r\n    mapping(uint => CandidatesDetail) public candidates;\r\n\r\n\r\n    constructor() public{\r\n\r\n    //  candis = [\"archana\", \"amala\"];\r\n    //  createElectionTitle(\"SCMS COLLEGE ELECTION\");\r\n    //  createElectionTitle(\"SCMS COLLEGE ELECTION\");   \r\n   \r\n    }\r\n\r\n    function createElectionTitle(string memory _title) public{\r\n        electionCount++;\r\n        elections[electionCount] = ElectionDetail(electionCount, _title, false);\r\n        emit electionSetup(electionCount, _title, true);\r\n     }\r\n\r\n    function addCandidates(uint _electionid, string memory _cand_name) public{\r\n            candidatesCount++;\r\n            candidates[candidatesCount] = CandidatesDetail(candidatesCount, _electionid,_cand_name,0);\r\n            emit addCandidate(candidatesCount, _cand_name, 0);\r\n     }\r\n\r\n     function voteCandidate(uint _candidateid) public{\r\n        CandidatesDetail memory _candidate = candidates[_candidateid];\r\n        uint _vote_count = _candidate.num_of_votes;\r\n        _vote_count++;\r\n        _candidate.num_of_votes = _vote_count;\r\n        candidates[_candidateid] = _candidate;\r\n        emit VoteCompleted(_candidateid, _vote_count);\r\n     }\r\n\r\n}",
  "sourcePath": "D:\\DEVELOPER\\DAPPS\\ONLINE VOTING SYSTEM\\contracts\\ElectionList.sol",
  "compiler": {
    "name": "solc",
    "version": "0.5.16+commit.9c3226ce.Emscripten.clang"
  },
  "schemaVersion": "3.4.7",
  "updatedAt": "2022-05-16T12:05:41.448Z",
  "networkType": "ethereum",
  "devdoc": {
    "methods": {}
  },
  "userdoc": {
    "methods": {}
  }
}