{
  "contractName": "ElectionList",
  "abi": [
    {
      "inputs": [],
      "payable": false,
      "stateMutability": "nonpayable",
      "type": "constructor"
    },
    {
      "anonymous": false,
      "inputs": [
        {
          "indexed": false,
          "internalType": "uint256",
          "name": "id",
          "type": "uint256"
        },
        {
          "indexed": false,
          "internalType": "string",
          "name": "cand_name",
          "type": "string"
        },
        {
          "indexed": false,
          "internalType": "uint256",
          "name": "num_votes",
          "type": "uint256"
        }
      ],
      "name": "addCandidate",
      "type": "event"
    },
    {
      "anonymous": false,
      "inputs": [
        {
          "indexed": false,
          "internalType": "uint256",
          "name": "id",
          "type": "uint256"
        },
        {
          "indexed": false,
          "internalType": "string",
          "name": "election_title",
          "type": "string"
        },
        {
          "indexed": false,
          "internalType": "bool",
          "name": "completed",
          "type": "bool"
        }
      ],
      "name": "electionSetup",
      "type": "event"
    },
    {
      "constant": true,
      "inputs": [
        {
          "internalType": "uint256",
          "name": "",
          "type": "uint256"
        }
      ],
      "name": "candidates",
      "outputs": [
        {
          "internalType": "uint256",
          "name": "election_id",
          "type": "uint256"
        },
        {
          "internalType": "string",
          "name": "name",
          "type": "string"
        },
        {
          "internalType": "uint256",
          "name": "num_of_votes",
          "type": "uint256"
        }
      ],
      "payable": false,
      "stateMutability": "view",
      "type": "function"
    },
    {
      "constant": true,
      "inputs": [],
      "name": "candidatesCount",
      "outputs": [
        {
          "internalType": "uint256",
          "name": "",
          "type": "uint256"
        }
      ],
      "payable": false,
      "stateMutability": "view",
      "type": "function"
    },
    {
      "constant": true,
      "inputs": [],
      "name": "electionCount",
      "outputs": [
        {
          "internalType": "uint256",
          "name": "",
          "type": "uint256"
        }
      ],
      "payable": false,
      "stateMutability": "view",
      "type": "function"
    },
    {
      "constant": true,
      "inputs": [
        {
          "internalType": "uint256",
          "name": "",
          "type": "uint256"
        }
      ],
      "name": "elections",
      "outputs": [
        {
          "internalType": "uint256",
          "name": "id",
          "type": "uint256"
        },
        {
          "internalType": "string",
          "name": "election_title",
          "type": "string"
        },
        {
          "internalType": "bool",
          "name": "completed",
          "type": "bool"
        }
      ],
      "payable": false,
      "stateMutability": "view",
      "type": "function"
    },
    {
      "constant": false,
      "inputs": [
        {
          "internalType": "string",
          "name": "_title",
          "type": "string"
        }
      ],
      "name": "createElectionTitle",
      "outputs": [],
      "payable": false,
      "stateMutability": "nonpayable",
      "type": "function"
    },
    {
      "constant": false,
      "inputs": [
        {
          "internalType": "uint256",
          "name": "_electionid",
          "type": "uint256"
        },
        {
          "internalType": "string",
          "name": "_cand_name",
          "type": "string"
        }
      ],
      "name": "addCandidates",
      "outputs": [],
      "payable": false,
      "stateMutability": "nonpayable",
      "type": "function"
    }
  ],
  "bytecode": "0x60806040526000805560006001553480156200001a57600080fd5b506040805160808101825260078183019081526661726368616e6160c81b6060830152815281518083019092526005825264616d616c6160d81b6020838101919091528101919091526200007290600290816200016f565b5060408051808201909152601581527f53434d5320434f4c4c45474520454c454354494f4e00000000000000000000006020820152620000bb906001600160e01b03620000c116565b620003cf565b6000805460019081018083556040805160608101825282815260208082018781528284018790529386526003815291909420845181559151805192936200011193908501929190910190620001d3565b50604091820151600291909101805460ff191691151591909117905560005490517f126eb44ef21c9532ed57d8ab5a35a384aeb49268b3ab6ba72432316091604d25916200016491849060019062000343565b60405180910390a150565b828054828255906000526020600020908101928215620001c1579160200282015b82811115620001c15782518051620001b0918491602090910190620001d3565b509160200191906001019062000190565b50620001cf92915062000254565b5090565b828054600181600116156101000203166002900490600052602060002090601f016020900481019282601f106200021657805160ff191683800117855562000246565b8280016001018555821562000246579182015b828111156200024657825182559160200191906001019062000229565b50620001cf9291506200027f565b6200027c91905b80821115620001cf5760006200027282826200029c565b506001016200025b565b90565b6200027c91905b80821115620001cf576000815560010162000286565b50805460018160011615610100020316600290046000825580601f10620002c45750620002e4565b601f016020900490600052602060002090810190620002e491906200027f565b50565b620002f2816200038d565b82525050565b6000620003058262000380565b62000311818562000384565b93506200032381856020860162000392565b6200032e81620003c5565b9093019392505050565b620002f2816200027c565b6060810162000353828662000338565b8181036020830152620003678185620002f8565b9050620003786040830184620002e7565b949350505050565b5190565b90815260200190565b151590565b60005b83811015620003af57818101518382015260200162000395565b83811115620003bf576000848401525b50505050565b601f01601f191690565b61075380620003df6000396000f3fe608060405234801561001057600080fd5b50600436106100625760003560e01c80632d35a8a2146100675780633477ee2e14610085578063418d7c94146100a75780635e6fef01146100bc578063997d2830146100de578063c5b15a3e146100e6575b600080fd5b61006f6100f9565b60405161007c91906105ac565b60405180910390f35b6100986100933660046104e3565b6100ff565b60405161007c93929190610618565b6100ba6100b53660046104a6565b6101ac565b005b6100cf6100ca3660046104e3565b610256565b60405161007c939291906105ba565b61006f610306565b6100ba6100f4366004610501565b61030c565b60015481565b6004602090815260009182526040918290208054600180830180548651600293821615610100026000190190911692909204601f81018690048602830186019096528582529194929390929083018282801561019c5780601f106101715761010080835404028352916020019161019c565b820191906000526020600020905b81548152906001019060200180831161017f57829003601f168201915b5050505050908060020154905083565b6000805460019081018083556040805160608101825282815260208082018781528284018790529386526003815291909420845181559151805192936101fa939085019291909101906103a6565b50604091820151600291909101805460ff191691151591909117905560005490517f126eb44ef21c9532ed57d8ab5a35a384aeb49268b3ab6ba72432316091604d259161024b9184906001906105ba565b60405180910390a150565b6003602090815260009182526040918290208054600180830180548651600293821615610100026000190190911692909204601f8101869004860283018601909652858252919492939092908301828280156102f35780601f106102c8576101008083540402835291602001916102f3565b820191906000526020600020905b8154815290600101906020018083116102d657829003601f168201915b5050506002909301549192505060ff1683565b60005481565b60018054810180825560408051606081018252858152602080820186815260008385018190529485526004825292909320815181559151805191949293610358938501929101906103a6565b5060409182015160029091015560015490517f128ebca12e186c4bc2ef1f3c119519e435701bd236b8d1ea02eff74ff6309d109161039a9184906000906105e9565b60405180910390a15050565b828054600181600116156101000203166002900490600052602060002090601f016020900481019282601f106103e757805160ff1916838001178555610414565b82800160010185558215610414579182015b828111156104145782518255916020019190600101906103f9565b50610420929150610424565b5090565b61043e91905b80821115610420576000815560010161042a565b90565b600082601f83011261045257600080fd5b81356104656104608261066e565b610647565b9150808252602083016020830185838301111561048157600080fd5b61048c8382846106b3565b50505092915050565b80356104a0816106f9565b92915050565b6000602082840312156104b857600080fd5b813567ffffffffffffffff8111156104cf57600080fd5b6104db84828501610441565b949350505050565b6000602082840312156104f557600080fd5b60006104db8484610495565b6000806040838503121561051457600080fd5b60006105208585610495565b925050602083013567ffffffffffffffff81111561053d57600080fd5b61054985828601610441565b9150509250929050565b61055c816106a3565b82525050565b61055c816106a8565b600061057682610696565b610580818561069a565b93506105908185602086016106bf565b610599816106ef565b9093019392505050565b61055c8161043e565b602081016104a082846105a3565b606081016105c882866105a3565b81810360208301526105da818561056b565b90506104db6040830184610553565b606081016105f782866105a3565b8181036020830152610609818561056b565b90506104db6040830184610562565b6060810161062682866105a3565b8181036020830152610638818561056b565b90506104db60408301846105a3565b60405181810167ffffffffffffffff8111828210171561066657600080fd5b604052919050565b600067ffffffffffffffff82111561068557600080fd5b506020601f91909101601f19160190565b5190565b90815260200190565b151590565b60006104a08261043e565b82818337506000910152565b60005b838110156106da5781810151838201526020016106c2565b838111156106e9576000848401525b50505050565b601f01601f191690565b6107028161043e565b811461070d57600080fd5b5056fea365627a7a7231582031942eb07102483f5a8c6abb3e0d98d63931077d7fcd71d3bbbef41e16a955766c6578706572696d656e74616cf564736f6c63430005100040",
  "source": "pragma solidity >=0.4.22 <0.9.0;\r\npragma experimental ABIEncoderV2;\r\n\r\n\r\ncontract ElectionList {\r\n    uint public electionCount = 0;\r\n    uint public candidatesCount = 0;\r\n    string[] candis;\r\n\r\n    struct ElectionDetail {\r\n        uint id;\r\n        string election_title;\r\n        bool completed;\r\n    }\r\n\r\n    struct CandidatesDetail {\r\n        uint election_id;\r\n        string name;\r\n        uint num_of_votes;\r\n    }\r\n\r\n    event electionSetup(\r\n        uint id,\r\n        string election_title,\r\n        bool completed\r\n    );\r\n\r\n    event addCandidate(\r\n        uint id,\r\n        string cand_name,\r\n        uint num_votes\r\n    );\r\n\r\n\r\n    mapping(uint => ElectionDetail) public elections;\r\n    mapping(uint => CandidatesDetail) public candidates;\r\n\r\n\r\n    constructor() public{\r\n\r\n     candis = [\"archana\", \"amala\"];\r\n     createElectionTitle(\"SCMS COLLEGE ELECTION\");   \r\n\r\n    }\r\n\r\n    function createElectionTitle(string memory _title) public{\r\n        electionCount++;\r\n        elections[electionCount] = ElectionDetail(electionCount, _title, false);\r\n        emit electionSetup(electionCount, _title, true);\r\n     }\r\n\r\n    function addCandidates(uint _electionid, string memory _cand_name) public{\r\n            candidatesCount++;\r\n            candidates[candidatesCount] = CandidatesDetail(_electionid,_cand_name,0);\r\n            emit addCandidate(candidatesCount, _cand_name, 0);\r\n     }\r\n\r\n}",
  "sourcePath": "D:\\DEVELOPER\\DAPPS\\ONLINE VOTING SYSTEM\\contracts\\ElectionList.sol",
  "compiler": {
    "name": "solc",
    "version": "0.5.16+commit.9c3226ce.Emscripten.clang"
  },
  "schemaVersion": "3.4.7",
  "updatedAt": "2022-05-09T11:35:11.055Z",
  "networkType": "ethereum",
  "devdoc": {
    "methods": {}
  },
  "userdoc": {
    "methods": {}
  }
}